:1008E00068656C6C6F20776F726C64004C434420B9
:0D08F000313678322070726F6A65637400D3
:10094500E4FDFCC3ED9FEC9E50070DBD00010C803E
:01095500F2AF
:01095600227E
:1008A000E4FDFCC3ED9FEC9E5015E4FBFA0BBB008E
:0F08B000010AEB647D4A70F50DBD00010C80E478
:0108BF002216
:030932001208FDAB
:10093500D2927F037E00120945C2927F3202094599
:1008FD00EF139284EFC313139285EF1313543F1329
:0C090D009286EF131313541F13928722DD
:10095700AB07EBC4540FFF120932AF031208FD02B5
:02096700093550
:0C0969007F011209577F0A7E0002094539
:10080000E4FF1208FD7F147E001208A0C290C2917E
:100810007F031209327F057E001208A01209357F7E
:10082000647E001209451209357F021208FD120983
:10083000357F281209577F0C1209577F0612095776
:050840007F01020957D1
:1008C000ED7006EF2480FA8004EF24C0FA7FE87E02
:1008D00003120945AF021209577F327E0002094513
:08098100D290120957C2902226
:10087D008B088A09890AAB08AA09A90A120919FF66
:10088D0060101209817401250AF50AE43509F5098C
:03089D0080E422D2
:10084500120800E4FDFF1208C07BFF7A0879E01268
:10085500087D7FB87E0B1208A01209697BFF7A0814
:1008650079EC12087D7FE87E031208A01209697FE2
:08087500F47E011208A080E4EA
:030000000209757D
:0C097500787FE4F6D8FD75810A02084581
:10091900BB010689828A83E0225002E722BBFE02DC
:09092900E32289828A83E493220F
:00000001FF
