:1000000002042DEC4D6011E8497017ED33EC330418
:10001000600DE4FCFFFEFD22E933E8330470F802D2
:1000200001B312017E58046009E4CC2481500628F3
:1000300050090201BD2840030201BAC0E0EB4A703A
:1000400044B98006D0E0FB0201A9EF4E701CBD80D0
:1000500008EBFFEAFEE9FD80EBE98DF0A4FEE5F098
:100060000200ECE9CDF9EAFEEBFFEF89F0A4FCE534
:10007000F0CE89F0A42EFFE435F0CD89F0A42DFE5A
:10008000E435F08067EF4E7005BD80D780C3EF8BFD
:10009000F0A4ACF0EE8BF0A42CFCE435F0F8EF8A81
:1000A000F0A42CE5F038FCE433CB8DF0A42CFCE577
:1000B000F03BF8EE8AF0A42CFCE5F038F8E433CFFE
:1000C00089F0A42CFCE5F038CF3400CE89F0A42FC1
:1000D000FFE5F03EFEE433C98DF0A42EFEE5F039D5
:1000E000CD8AF0A42FFFE5F03EFEE43DFD33D0E0E5
:1000F000FB50070BBB000F0201BDEC2CFCEF33FFE4
:10010000EE33FEED33FD02019575F020800E75F0A3
:1001100010800575F0087D007E007F003392D53099
:10012000D50312024AEC334010EF33FFEE33FEEDFD
:1001300033FDEC33FCD5F0ED22E5F0247EA2D5139F
:10014000CC92E7CDCEFF22EDD2E7CD33EC3392D582
:1001500024814006E4FFFEFDFC22FCE4CFCECDCCA2
:1001600024E0501174FF80EDC3CC13CCCD13CDCE61
:1001700013CECF13CF0470F030D5DE02024AE9D29D
:10018000E7C933E833F892D5EDD2E7CD33EC33FC51
:100190005002B2D522EC30E7100FBF000C0EBE00AB
:1001A000080DBD00040BEB6014A2D5EB13FCED921F
:1001B000E7FD2274FFFCFDFEFF22E480F8A2D57467
:1001C000FF13FC7D80E480EFBB010CE58229F58202
:1001D000E5833AF583E0225006E92582F8E622BB62
:1001E000FE06E92582F8E222E58229F582E5833AD6
:1001F000F583E49322BC000BBE0029EF8DF084FF51
:10020000ADF022E4CCF875F008EF2FFFEE33FEECF2
:1002100033FCEE9DEC984005FCEE9DFE0FD5F0E919
:10022000E4CEFD22EDF8F5F0EE8420D21CFEADF018
:1002300075F008EF2FFFED33FD4007985006D5F01D
:10024000F222C398FD0FD5F0EA22C3E49FFFE49E9B
:10025000FEE49DFDE49CFC2212044012031E7F017B
:1002600012037A8F08E50875F064842430FB7D0161
:100270007F011203F4E50875F06484E5F075F00A77
:10028000842430FF12041DE50875F00A84E5F0248B
:1002900030FF12041DAC08E41201137B487AE179A7
:1002A0009C78411200031201478E098F0A7C037D5E
:1002B000E81201F5EF2430FB7D017F021203F47F89
:1002C0002E12041DAE09AF0A7C037DE81201F57EF3
:1002D000007F64CFCDCFCECCCE1201F5EF2430FF1E
:1002E00012041DAE09AF0A7C007D641201F57E0088
:1002F0007F0ACFCDCFCECCCE1201F5EF2430FF1246
:10030000041DAE09AF0A7C007D0A1201F5ED243010
:10031000FF12041D7FF47E0112039C02025EC28064
:10032000C2817F147E0012039C7F031203E3D281FB
:10033000C2817F057E0012039C7F031203E3D281FA
:10034000C2817F641204397F031203E3D281C28128
:100350007F017E0012039C7F021203E3D281C281DF
:100360001F7E0012039C7F281203BC7F0C1203BC6B
:100370007F011203BC7F060203BCEF1392A0EFA221
:10038000E192A1A2E292A2D2A3D2A4C2A3C2A420CB
:10039000A5FD30A5FDD2A6AFB0C2A622E4FDFCC3E8
:1003A000ED9FEC9E5015E4FBFA0BBB00010AEB64D9
:1003B0007B4A70F50DBD00010C80E422AE07C280BF
:1003C0001203DCD281C281EF24FE60030470077F38
:1003D000027E0002039C7F251204392212040BD2F4
:1003E00081C281EFA2E39287A2E29286A2E1928586
:1003F000139284228B0BBF01047F8080027FC0EDAB
:10040000142FFF1203BCAF0B02041DEF339287EFD2
:10041000A2E69286A2E59285A2E4928422AE07D259
:10042000801203DCD281C2817F29020439787FE403
:10043000F6D8FD75810B020258AE071FEE70FA2246
:07044000C2A4C2A3C2A62260
:00000001FF
