:0B0B93000913C0F9A4B09982F880900B
:0B0B9F00EF1FAC0670011E4C70F62228
:080B4900F8E6F5807F0A7E004A
:100B5100EF1FAC0670011E4C6014758911758DFC78
:0F0B6100758B18D28E308FFDC28FC28E80E2222C
:100B7000758911758CFC758A31D28CD2A8D2A9D214
:060B8000AFD2B2D28822C0
:100AAC00E4F51EF51FD2A074132512120B49C2A037
:100ABC00D2A17413250C120B49C2A1D2A274132516
:100ACC0020120B49C2A2D2A37413250B120B49C2DC
:100ADC00A3D2A474132508120B49C2A4D2A5741373
:100AEC00250D120B49C2A5051FE51F7002051ED36B
:090AFC009410E51E940040AD22A7
:100923008E238F24E4FCFD7BA07A867901F8120BD9
:10093300058F12AE23AF24E4FCFD7BA07A867901F8
:10094300F8120B05AC00AD01AE02AF03E47B107AE5
:1009530027F9F8120B058F0CAE23AF247C277D10EB
:100963001208007E037FE8CFCDCFCECCCE12080095
:100973008F20AE23AF247C037DE81208007E007F26
:1009830064CFCDCFCECCCE1208008F0BAE23AF24D5
:100993007C007D641208007E007F0ACFCDCFCECCD1
:1009A300CE1208008F08AE23AF247C007D0A120804
:0409B300008D0D2284
:080BAA00120B70120AAC80FB73
:03000300020B8667
:0D0B8600C0E0050AE50A70020509D0E03262
:03000B00020A43A3
:100A4300C0E0C0F0C083C082C0D075D000C000C079
:100A530001C002C003C004C005C006C007758CFCFA
:100A6300758A310522E52270020521D28CB4E81E75
:100A7300E521B4031985091C850A1DAF1DAE1C129F
:100A83000923750900750A00752100752200D00736
:100A9300D006D005D004D003D002D001D000D0D0EE
:090AA300D082D083D0F0D0E03203
:030000000209B73B
:0C09B700787FE4F6D8FD7581240209FE6B
:10080000BC000BBE0029EF8DF084FFADF022E4CCDC
:10081000F875F008EF2FFFEE33FEEC33FCEE9DECA5
:10082000984005FCEE9DFE0FD5F0E9E4CEFD22EDEB
:10083000F8F5F0EE8420D21CFEADF075F008EF2F35
:10084000FFED33FD4007985006D5F0F222C398FD26
:050850000FD5F0EA22C3
:100B0500C2D5E830E70FB2D5E4C39BFBE49AFAE41B
:100B150099F9E498F8EC30E717B2D5120B3B1208B7
:100B250091E4C39BFBE49AFAE499F9E498F880030D
:100B350012089130D50DE4C39FFFE49EFEE49DFDB0
:040B4500E49CFC220E
:1009C300020BAAE493A3F8E493A34003F68001F295
:1009D30008DFF48029E493A3F85407240CC8C33335
:1009E300C4540F4420C8834004F456800146F6DF04
:1009F300E4800B0102040810204080900B93E47EF6
:100A0300019360BCA3FF543F30E509541FFEE493F8
:100A1300A360010ECF54C025E060A840B8E493A3BF
:100A2300FAE493A3F8E493A3C8C582C8CAC583CAEA
:100A3300F0A3C8C582C8CAC583CADFE9DEE780BEA2
:010B9E000056
:1008550075F008758200EF2FFFEE33FECD33CDCC5A
:1008650033CCC58233C5829BED9AEC99E5829840DD
:100875000CF582EE9BFEED9AFDEC99FC0FD5F0D6BA
:10088500E4CEFBE4CDFAE4CCF9A88222B800C1B9E4
:100895000059BA002DEC8BF084CFCECDFCE5F0CB22
:1008A500F97818EF2FFFEE33FEED33FDEC33FCEB5B
:1008B50033FB10D703994004EB99FB0FD8E5E4F916
:1008C500FA227818EF2FFFEE33FEED33FDEC33FC03
:1008D500C933C910D7059BE99A4007EC9BFCE99AF7
:1008E500F90FD8E0E4C9FAE4CCFB2275F010EF2F3C
:1008F500FFEE33FEED33FDCC33CCC833C810D7073C
:100905009BEC9AE899400AED9BFDEC9AFCE899F876
:0E0915000FD5F0DAE4CDFBE4CCFAE4C8F92209
:00000001FF
