:08091B008F993099FDC2992269
:0608C2008B088A09890A77
:1008C8001208FA8E0B8F0CE4FDFCC3ED950CE50BBA
:1008D8006480F8EC6480985018AB08AA09A90A8DBE
:1008E800828C8312087CFF12091B0DBD00010C804D
:0108F800D926
:0108F90022DC
:070923003098FDAF99C29866
:01092A0022AA
:10080000758920758780758DFA759850D28E12097A
:1008100023AE0712091BEF24CFB4080050469008FE
:100820002C75F003A4C58325F0C583730208440228
:10083000084802084C0208500208540208580208EE
:100840005C020860B28080C6B28180C2B28280BE83
:10085000B28380BAB28480B6B28580B2B28680AEEE
:10086000B28780AAA280B39286928492829280A25A
:0C08700080B392879285928392818092DF
:0300000002090FE3
:0C090F00787FE4F6D8FD75810C0208002A
:10087C00BB010CE58229F582E5833AF583E0225031
:10088C0006E92582F8E622BBFE06E92582F8E2227B
:0D089C00E58229F582E5833AF583E4932295
:1008FA00E4FFFE1208A9600C0FEF70010E09E970FF
:05090A00F20A80EF225B
:1008A900BB010689828A83E0225002E722BBFE024D
:0908B900E32289828A83E4932280
:00000001FF
