:0C09AB000A08BF86DBCFE6EDFD87FFEFFA
:08098400F8E6F5807F057E0016
:10098C00EF1FAC0670011E4C6014758901758CFC50
:0F099C00758A18D28C308DFDC28DC28C80E222FC
:10090B00EF75F00A84F515EF75F00A8485F016ED96
:10091B0075F00A84F517ED75F00A84A9F0EB75F004
:10092B000A84FDEB75F00A84ABF0E4FAEAC3941E7B
:10093B00748094805042C2A074082515120984D289
:10094B00A0C2A174082516120984D2A1C2A27408F0
:10095B002517120984D2A2C2A3740829120984D2C2
:10096B00A3C2A474082D120984D2A4C2A574082BA7
:08097B00120984D2A50A80B420
:010983002251
:10088C00E4F512F513F514C2B0B2B00514AB14AD07
:10089C0013AF1212090BE514643B70020513E51338
:1008AC00643B7002051220B50C20B50205127F3294
:1008BC007E0012098C20B60C20B60205137F327E06
:1008CC000012098C20B70C20B70205147F327E0071
:1008DC0012098CD3E513943B748094804003E4F5A7
:1008EC0013D3E514943B748094804003E4F514D343
:0F08FC00E512941774809480408FE4F512808A7F
:03000000020800F3
:0C080000787FE4F6D8FD758117020847E8
:10080C0002088CE493A3F8E493A34003F68001F26E
:10081C0008DFF48029E493A3F85407240CC8C333ED
:10082C00C4540F4420C8834004F456800146F6DFBC
:10083C00E4800B01020408102040809009ABE47E98
:10084C00019360BCA3FF543F30E509541FFEE493B1
:10085C00A360010ECF54C025E060A840B8E493A378
:10086C00FAE493A3F8E493A3C8C582C8CAC583CAA3
:10087C00F0A3C8C582C8CAC583CADFE9DEE780BE5B
:0109B700003F
:00000001FF
