:02000000802E50
:10003000743811A4740E11A475900FC290C291C2AD
:1000400092C293114780FC7430119722743111973A
:10005000227432119722743311972274341197222B
:1000600074351197227436119722743711972274C0
:1000700038119722743911972274411197227442D2
:1000800011972274431197227444119722744511D9
:100090009722744611972211B1F5A0D2B0C2B1D205
:1000A000B2C2B22211B1F5A0C2B0C2B1D2B2C2B2D4
:0F00B00022D2A7C2B0D2B1C2B2D2B220A7F922D7
:00000001FF
