:100A7F000A1F40792430191202780010080F7FBF27
:060A8F00DFEFF7FBFDFEA6
:100A5F00E4FDFCC3ED9FEC9E5015E4FBFA0BBB00CD
:0F0A6F00010AEB646F4A70F50DBD00010C80E4C5
:010A7E002255
:0B0A9600EF1FAC0670011E4C70F62232
:08096B008F2C8E2B8D2A8C29A4
:10097300E4F52FF530C3E530952EE52D6480F8E5D9
:100983002F648098503DE47B0AFAF9F8AF2CAE2B24
:10099300AD2AAC2912083CAF0374082530F8A6072A
:1009A300AF2CAE2BAD2AAC29E47B0AFAF9F8120876
:1009B3003C8F2C8E2B8D2A8C290530E53070B605A3
:0309C3002F80B2D0
:0109C600220E
:040A15008E298F2A6D
:100A1900E4FBFA900000C3E582952AE5296480F891
:100A2900E5836480985023AF82740F2FF8E6F5A010
:100A3900AF8274082FF8E6241FF8E6F5807F0A7E56
:100A490000120A9675A0FFA380CC0BBB00010AEB2C
:050A590064194A70BEA3
:010A5E002275
:1009C700E4F51AF519F518F5177FFF7EE07DF57C3C
:1009D70005AB1AAA19A918A817D31208CE50E1AF68
:1009E7001AAE19AD18AC17752D00752E0712096BC5
:1009F7007F077E00120A15E51A2401F51AE4351956
:0E0A0700F519E43518F518E43517F51780BB1E
:030000000208DF14
:0C08DF00787FE4F6D8FD75813002092610
:1008000075F008758200EF2FFFEE33FECD33CDCCAF
:1008100033CCC58233C5829BED9AEC99E582984032
:100820000CF582EE9BFEED9AFDEC99FC0FD5F0D60F
:10083000E4CEFBE4CDFAE4CCF9A88222B800C1B939
:100840000059BA002DEC8BF084CFCECDFCE5F0CB77
:10085000F97818EF2FFFEE33FEED33FDEC33FCEBB0
:1008600033FB10D703994004EB99FB0FD8E5E4F96B
:10087000FA227818EF2FFFEE33FEED33FDEC33FC58
:10088000C933C910D7059BE99A4007EC9BFCE99A4C
:10089000F90FD8E0E4C9FAE4CCFB2275F010EF2F91
:1008A000FFEE33FEED33FDCC33CCC833C810D70791
:1008B0009BEC9AE899400AED9BFDEC9AFCE899F8CC
:0E08C0000FD5F0DAE4CDFBE4CCFAE4C8F9225F
:1008CE00EB9FF5F0EA9E42F0E99D42F0E89C45F080
:0108DE0022F7
:1008EB000209C7E493A3F8E493A34003F68001F253
:1008FB0008DFF48029E493A3F85407240CC8C3330E
:10090B00C4540F4420C8834004F456800146F6DFDC
:10091B00E4800B0102040810204080900A7FE47EE3
:10092B00019360BCA3FF543F30E509541FFEE493D1
:10093B00A360010ECF54C025E060A840B8E493A398
:10094B00FAE493A3F8E493A3C8C582C8CAC583CAC3
:10095B00F0A3C8C582C8CAC583CADFE9DEE780BE7B
:010A95000060
:00000001FF
