:03000000020C945B
:0C0C9400787FE4F6D8FD758166020CDB69
:10000E0025332E306600500054002550574D3A00CF
:0D001E00546F6320646F3A0020762F70004D
:0410ED0002260000D7
:1010BD00E4FDFCC3ED9FEC9E50070DBD00010C80BF
:0110CD00F230
:0110CE0022FF
:10101C00E4FDFCC3ED9FEC9E5015E4FBFA0BBB000A
:0F102C00010AEB647D4A70F50DBD00010C80E4F4
:01103B002292
:0310970012107BB9
:10109A00D2827F037E001210BDC2827F5A0210BD27
:10107B00EF139284EFC313139285EF1313543F13A3
:0C108B009286EF131313541F1392872258
:1010CF00AB07EBC4540FFF121097AF0312107B0244
:0210DF00109A65
:0C10E1007F011210CF7F0A7E000210BDBC
:100F2800E4FF12107B7F147E0012101CC280C28165
:100F38007F031210977F057E0012101C12109A7FF3
:100F4800647E001210BD12109A7F0212107B1210DC
:100F58009A7F281210CF7F0C1210CF7F061210CF65
:050F68007F010210CF23
:10103C00ED7006EF2480FA8004EF24C0FA7FE87E7E
:10104C00031210BDAF021210CF7F327E000210BD12
:08000300D2801210CFC280224E
:100FD6008B4B8A4C894DAB4BAA4CA94D12056FFF22
:100FE60060101200037401254DF54DE4354CF54CA7
:030FF60080E42272
:100FF900754EFF754F0075500E8F548E538D528C60
:10100900517B007A0079461207ED7B007A00794618
:03101900020FD6ED
:100DA400D2B0438901D2A9D2AF8E318F32E531C39B
:100DB40013F528E53213F529C3E5329529F523E522
:100DC400319528F522AE28AF29AB07AA06E4C39BC8
:100DD400FFE49AFE74019400FDE49400FC78081288
:100DE40007478F33E4C39BFFE48F35AE22AF23ABB9
:100DF40007AA06C39BFFE49AFE74019400FDE494E1
:100E040000FC78081207478F2AE4C39BFF8F2F85C5
:060E1400338C85358A22B3
:0310F200D28C227B
:0310F500C28C2288
:100C0000AF30EF3395E0FE4F7005C2B0C2A922EFBE
:100C100064644E7005D2B0C2A922AE31AF32AB07C8
:100C2000AA06E4F9F8AF30EF3395E0FEFDFC1206BA
:100C30001CE47B64FAF9F81206A78E288F29C3E515
:100C4000329529F523E5319528F522AB07AA06E46C
:100C5000C39BFFE49AFE74019400FDE49400FC78C9
:100C6000081207478F33E4C39BFFE48F35AE22AFF2
:100C700023AB07AA06C39BFFE49AFE74019400FD10
:100C8000E49400FC78081207478F2AE4C39BFF8F87
:040C90002FD2A92294
:100ED90020920375A00320930375A00CE4FFFEFD87
:100EE900FCAB3BAA3AA939A8381201D4702AAFA0A1
:100EF900EF6403700EFDFF12103C7BFF7A0079143A
:100F0900120FD6AFA0EF640C700EFDFF12103C7BE0
:0F0F1900FF7A007916120FD6209403E4F5A02278
:100E7C00E4FFFE7DE17C44AB3BAA3AA939A83812C9
:100E8C0001D460044002D2B7E4FFFE7DFA7C43AB90
:100E9C003BAA3AA939A8381201D45002D2B6E4FFC1
:100EAC00FE7DE17C44AB3BAA3AA939A8381201D4A7
:100EBC0060025018E4FFFE7DFA7C43AB3BAA3AA9D2
:0D0ECC0039A8381201D44004C2B7C2B622C2
:100E1A00E4FFFE7D707C42AB2EAA2DA92CA82B12D2
:100E2A00002E7B937A1879E478401201378F3B8E33
:100E3A003A8D398C38E4FD7F0812103C7BFF7A002A
:100E4A007918120FD6AC34E4120257120FF97D0149
:100E5A00E4FF12103C7BFF7A00791E120FD6AF3BDB
:100E6A00AE3AAD39AC38120FF97BFF7A0079260217
:020E7A000FD691
:10105C0020900205342091021534D3E53494647445
:0F106C00809480400375346420950385343022CE
:100F6D00120F28C2AF438950E4F58DF58BF5C87586
:100F7D00CBB175CAE0D2CAD2ADD2AFF5A0C2B7C25D
:100F8D00B61210E175342D75302D7F107E27120DA0
:100F9D00A4120ED9120E1A120E7C120C001210F29F
:020FAD0080EFD3
:03002B00020D20A3
:0D0D2000C0E0C0F0C083C082C0D075D0001C
:100D2D00C2CFC28EAF8DAD8B753C008F3DE53D754D
:100D3D003D00F53CAF05ED423DE4F58DF58BD28ED2
:100D4D00E52725E0243EF8A63C08A63D0527E52726
:100D5D007002052664034526702FE53F2541FFE50A
:100D6D003E3540FEE5432FFFE5423EFE7C007D0310
:100D7D001205C7AC06AD07E41202528F2E8E2D8DD3
:0C0D8D002C8C2B75260075270012105CC2
:0B0D9900D0D0D082D083D0F0D0E03268
:03000B000210AA36
:1010AA00B2B020B007852A8C852F8A3285338C8589
:0310BA00358A3242
:10002E00EC4D6011E8497017ED33EC3304600DE4CC
:10003E00FCFFFEFD22E933E8330470F80202C01221
:10004E00028B58046009E4CC248150062850090222
:10005E0002CA2840030202C7C0E0EB4A7044B980CE
:10006E0006D0E0FB0202B6EF4E701CBD8008EBFF1F
:10007E00EAFEE9FD80EBE98DF0A4FEE5F002011742
:10008E00E9CDF9EAFEEBFFEF89F0A4FCE5F0CE89AD
:10009E00F0A42EFFE435F0CD89F0A42DFEE435F06A
:1000AE008067EF4E7005BD80D780C3EF8BF0A4AC98
:1000BE00F0EE8BF0A42CFCE435F0F8EF8AF0A42CD3
:1000CE00E5F038FCE433CB8DF0A42CFCE5F03BF8E6
:1000DE00EE8AF0A42CFCE5F038F8E433CF89F0A4D6
:1000EE002CFCE5F038CF3400CE89F0A42FFFE5F0DC
:1000FE003EFEE433C98DF0A42EFEE5F039CD8AF034
:10010E00A42FFFE5F03EFEE43DFD33D0E0FB5007AB
:10011E000BBB000F0202CAEC2CFCEF33FFEE33FEDA
:06012E00ED33FD0202A208
:100134000202CAEC5D046005E8590470030202C0BF
:1001440012028B580460F6EC4860F2EC7004FDFE79
:10015400FF22C860DB2481C85009C398600250069E
:100164000202C79850CAF582E9294B4A7005AB824E
:100174000202B675F0007C1A7880C3EF9BEE9AED0C
:1001840099400DC3EF9BFFEE9AFEED99FDE842F016
:10019400DC23ACF0D0E0FFD0E0FED0E0FDAB822069
:1001A400E7101BEB60BAEC2CFCEF33FFEE33FEEDF3
:1001B40033FD0202A2E803F830E705C0F075F00051
:1001C400EF2FFFEE33FEED33FD40B830E7C280AAD7
:1001D40074F8CC6480CCC86480C8F58204604FC3D2
:1001E400EB9FF5F0EA9E42F0E99D42F0E89C45F071
:1001F400603C501DE5825FFFE582D313CB5BCBF4FB
:100204002B5582FB50280ABA002409B90020088023
:100214001DE5825BFBE582D313CF5FCFF4C3132FBD
:100224005582FF50090EBE00050DBD00010CC3EB45
:100234009FF5F0EA9E42F0E99D42F0E89C45F060AB
:0902440007CC4820E701B3EC22CD
:10024D0075F020800E75F010800575F0087D007E2C
:10025D00007F003392D530D503120739EC334010AF
:10026D00EF33FFEE33FEED33FDEC33FCD5F0ED2235
:0E027D00E5F0247EA2D513CC92E7CDCEFF2271
:10079100E562244EF8E6056222784B300702784E76
:1007A100E475F00112075B02056F2000EB7F2ED28A
:1007B100008018EF540F2490D43440D4FF30040B40
:1007C100EF24BFB41A0050032461FFE563600215F2
:1007D100630566E5667002056530070D784BE475C3
:1007E100F00112075BEF0205B5020FAF7403D207E8
:1007F1008003E4C207F5628B4B8A4C894DE4F563B3
:10080100F565F566E56360077F201207CC80F57515
:1008110064FFC201C200C202C203C205C206C2080D
:1008210012079AFF700D3007057F001207DDAF66D2
:10083100AE6522B4255FC2D5C20412079AFF24D047
:10084100B40A00501A75F00A786330D50508B6FF6E
:100851000106C6A426F620D5047002D20380D9244D
:10086100CFB41A00EF5004C2E5D204020ACAD20181
:1008710080C6D20080C0D20280BCD2D580BAD20557
:1008810080B47F201207CC2002077401B5630040B9
:10089100F1120791FF1207CC020805D208D2068097
:1008A10095120791FB120791FA120791F94A4B70C1
:1008B1000679C17A0B7BFF20022EE563602A7E0058
:1008C1008E8275830012058860060EEE656470F0F5
:1008D100C2D5EBC0E0EAC0E0E9C0E0EE120B2AD0DD
:1008E100E0F9D0E0FAD0E0FB12056FFF60AAEBC09F
:1008F100E0EAC0E0E9C0E01207CCD0E02401F9D081
:10090100E03400FAD0E0FBE5640460DCD564D98012
:1009110087D20280A2120B0D60F7E5647001041208
:1009210002D5A964600DE564600914F564120BB485
:10093100EF60F3EA30E702F404C3995077EAF42553
:10094100640430E701E404F564800D120B0D60C10D
:10095100EA056425641202D5EA7861F630E701E41C
:10096100256404D5640420050114120B2AE4C0E0B7
:10097100120BB47861E6601320E70714F61207B48E
:10098100802204F6D0E014C0E07F001207B4E564D1
:1009910060071207AB1564800B3005031207ABD05B
:1009A100E0020805D0E00480C5120B0D60A0E564EB
:1009B100041202D57861EAF6E564200502600104BB
:0509C1002404120B2AC2
:1009C60074FF04C0E0120BB41207B4E564200502FC
:1009D60060031207ABD0E0B564E87F451207BE7826
:1009E60061E67F2B30E7047F2DF404C0E01207CCCC
:1009F600D0E075F00A84C0F01207B5D0E01207B552
:100A0600020805791080027908C206C2088008D259
:100A1600D5790A8004790AC2D5E564047002F564C2
:100A2600E4FAFDFEFF120791FC7B08200113120772
:100A360091FD7B1030000A120791FE120791FF7B91
:100A460020EC3382D592D55013C3E43000069FFFC5
:100A5600E49EFEE42001039DFDE49CFCE4CBF8C289
:100A660001EC700CCFCECDCCE824F8F870F38017EB
:100A7600C3EF33FFEE33FEED33FDEC33FCEB33FB1C
:100A8600994002FB0FD8E9EB300105F8D0E0C448E5
:100A9600B201C0E00AEC4D4E4F78207B0070C2EAEE
:100AA600B5640040BCC0E0120B2CD0F0D0E02001B1
:100AB60004C4C0E0C4B201C0F01207B5D0F0D5F04E
:100AC600EB02080512076B08A2530A095808734C73
:100AD600086F420A0D4F0A15440A15490888430A49
:100AE6001B55094C4609AA450916470BE1500877DC
:100AF6002D087B2E089E2B087F23089C200BCA2AD4
:100B060008374800000896E564B4FF0375640612CA
:100B16000791FC120791FD120791FE120791FF78CB
:100B26005A020304790AA2D5200314300509B91024
:100B3600020404B9080104A2D520060250010420CB
:100B460002689202B563005034C0E07F203003197A
:100B56007F30A20272067205500F120B83C202C2C8
:100B660006C205C2087F30800F300503E9C0E012D7
:100B760007CC300503D0E0F9D0E0B563CC300517DB
:100B86007F30B9100C1207CC7F583004077F78806D
:100B960003B908031207CC3002057F2D0207CC7F6C
:100BA600202008F87F2B2006F322920280CF7F00B8
:100BB600B407005005245AF8E6FF22286E756C6CBF
:100BC6002900D2011207913001F8C201786330D5AD
:100BD6000108F60208372D5043495812079124039D
:100BE600B405004001E4900BDC931207BD743A1281
:0A0BF60007BDD203756304020A096B
:10028B00E9D2E7C933E833F892D5EDD2E7CD33ECB9
:07029B0033FC5002B2D52232
:1002A200EC30E7100FBF000C0EBE00080DBD0004BD
:1002B2000BEB6014A2D5EB13FCED92E7FD2274FF69
:1002C200FCFDFEFF22E480F8A2D574FF13FC7D80C2
:0302D200E480EFD6
:1002D500F920E72824F950037907E4F42402FB18F0
:1002E500DBFDE624FB5014E9600DE4F618E604F6A0
:0F02F500B40A08E4F6D9F57401F60A22C2D5223C
:10030400ED33EC3392D5FA602AB4FF33EDC2E77BC8
:10031400FF60067A037929E4227A03793220D5042E
:100324007A03792D224E614E002B494E46002D4909
:100334004E4600E47A08F608DAFC7B00740722E8EB
:10034400C0E0ECC0E0EDC0E0EEC0E0EFC0E0EA7574
:10035400F010A4CAABF075F04DA42BFBE435F0FC0F
:10036400EA2410FAEB34C5FBEC34D9FCEDC2E7FF08
:1003740075F056A4F42411C5F0F434C58FF0A42A02
:10038400E5F03BE43CF620E71412052FD0E0FFD063
:10039400E0FED0E0FDD0E0FC1201378014F404123A
:1003A400052FD0E0FFD0E0FED0E0FDD0E0FC12004D
:1003B4002ED0E0F8E6FAEDD2E7CD33EC332482FB1D
:1003C400E4C3CF33CFCE33CECD33CD33DBF37B0792
:1003D40075F00A846004F6081B0AE5F0F6088FF04D
:1003E400740AA4FFACF08EF0740AA42CFEACF05096
:1003F400010C8DF0740AA42CFDE435F0F608DBDE64
:0304040074072258
:100407000202C0E86480F8E933E83360110460F061
:10041700ED33EC337009E8FCE9FDEAFEEBFF22045B
:1004270060DED3EB9FEA9EE99DE8C2E78CF0C2F756
:1004370095F0400CE8CCF8E9CDF9EACEFAEBCFFB22
:1004470012028B85D0F05804700320D5B3E80470EE
:10045700075002B2D50202CA92D5EC0460F7E4CC89
:10046700C0E0C398F8603B94186008400DD0E0FBEB
:100477000202A2E4FBFAC9FC8028E830E406E4C9DA
:10048700FBE4CAFCE830E305E4C9CACBFCE854073F
:100497006010F8C3E913F9EA13FAEB13FBEC13FC4A
:1004A700D8F130F52FC3E49CFCEF9BFFEE9AFEEDED
:1004B70099FDD0E0FBEF4E4D4C701222DB03020298
:1004C700C7EC2CFCEF33FFEE33FEED33FDED30E7E9
:1004D700EB0202A2EF2BFFEE3AFEED39FDD0E0FB77
:1004E70050130BBB00030202CAED13FDEE13FEEF20
:0804F70013FFEC13FC0202A24A
:1004FF003F8000004120000042C80000447A000005
:10050F00461C400047C35000497424004B18968086
:10051F004CBEBC205A0E1BCA6753C21C749DC5AE7D
:10052F00FB60065407601C232312055DEB543860F3
:10053F000912054912055812002EECF8EDF9EEFAE2
:10054F00EFCB22EB12055880F1543803241C900492
:10055F00FFFE93FC0EEE93FD0EEE930ECE93FF2255
:100CA000020F6DE493A3F8E493A34003F68001F2EE
:100CB00008DFF48029E493A3F85407240CC8C33355
:100CC000C4540F4420C8834004F456800146F6DF24
:100CD000E4800B01020408102040809010EDE47EB7
:100CE000019360BCA3FF543F30E509541FFEE49319
:100CF000A360010ECF54C025E060A840B8E493A3E0
:100D0000FAE493A3F8E493A3C8C582C8CAC583CA0A
:100D1000F0A3C8C582C8CAC583CADFE9DEE780BEC2
:0110F10000FE
:10056F00BB010689828A83E0225002E722BBFE028A
:09057F00E32289828A83E49322BD
:10058800BB010CE58229F582E5833AF583E0225028
:1005980006E92582F8E622BBFE06E92582F8E22272
:0D05A800E58229F582E5833AF583E493228C
:1005B500BB010689828A83F0225002F722BBFE0125
:0205C500F3221F
:1005C700BC000BBE0029EF8DF084FFADF022E4CC18
:1005D700F875F008EF2FFFEE33FEEC33FCEE9DECE1
:1005E700984005FCEE9DFE0FD5F0E9E4CEFD22ED27
:1005F700F8F5F0EE8420D21CFEADF075F008EF2F71
:10060700FFED33FD4007985006D5F0F222C398FD61
:050617000FD5F0EA22FE
:10061C00E88FF0A4CC8BF0A42CFCE98EF0A42CFC7D
:10062C008AF0EDA42CFCEA8EF0A4CDA8F08BF0A4FB
:10063C002DCC3825F0FDE98FF0A42CCD35F0FCEB5A
:10064C008EF0A4FEA9F0EB8FF0A4CFC5F02ECD391F
:0F065C00FEE43CFCEAA42DCE35F0FDE43CFC228C
:10066B0075F008758200EF2FFFEE33FECD33CDCC46
:10067B0033CCC58233C5829BED9AEC99E5829840C9
:10068B000CF582EE9BFEED9AFDEC99FC0FD5F0D6A6
:10069B00E4CEFBE4CDFAE4CCF9A88222B800C1B9D0
:1006AB000059BA002DEC8BF084CFCECDFCE5F0CB0E
:1006BB00F97818EF2FFFEE33FEED33FDEC33FCEB47
:1006CB0033FB10D703994004EB99FB0FD8E5E4F902
:1006DB00FA227818EF2FFFEE33FEED33FDEC33FCEF
:1006EB00C933C910D7059BE99A4007EC9BFCE99AE3
:1006FB00F90FD8E0E4C9FAE4CCFB2275F010EF2F28
:10070B00FFEE33FEED33FDCC33CCC833C810D70727
:10071B009BEC9AE899400AED9BFDEC9AFCE899F862
:0E072B000FD5F0DAE4CDFBE4CCFAE4C8F922F5
:0E073900C3E49FFFE49EFEE49DFDE49CFC22D1
:10074700E86010ECA2E713FCED13FDEE13FEEF13C8
:04075700FFD8F022B5
:10075B00FAE6FB0808E6F925F0F618E6CA3AF6229F
:10076B00D083D082F8E4937012740193700DA3A31D
:10077B0093F8740193F5828883E473740293686031
:06078B00EFA3A3A380DF31
:100FAF00EFB40A07740D120FBA740A309811A8998A
:100FBF00B8130CC2983098FDA899C298B811F630A2
:070FCF0099FDC299F599227A
:00000001FF
