:10011D006E6F7468696E67207265616C6C79206DA5
:06012D00617474657200AC
:1000A2001201691200031201707BFF7A01791DE4CB
:1000B200FDFF1200C37FF47E011200E41201708082
:0100C200E855
:10013300EF339287EFA2E69286A2E59285A2E4923C
:02014300842214
:10014500EFA2E39287A2E29286A2E19285139284BE
:010155002287
:07016200AE071FEE70FA2248
:10000300C280C282C2817F147E001200E47F031289
:100013000145D282C2827F057E001200E47F031273
:100023000145D282C2827F641201627F03120145BD
:10003300D282C2821F120145D282C2821F7E001267
:1000430000E47F281200597F0C1200597F0112002F
:06005300597F060200596E
:10005900AE07C280120133D282C282120145D28216
:10006900C282EF24FE60030470077F027E00020053
:07007900E47F251201622261
:020104008B0B63
:10010600EF640170047F8080027FC0ED142FFF1220
:070116000059AF0B020000CD
:0600C3008B088A09890A7E
:1000C900EF640170047F8080027FC0ED142FFF125E
:0B00D9000059AB08AA09A90A020000A8
:050170007F01020059AF
:07016900C2A4C2A3C2A6223A
:10008000EF1392A0EFA2E192A1A2E292A2D2A3D298
:10009000A4C2A3C2A420A5FD30A5FDD2A6AFB0C2C4
:0100A000A6B9
:0100A100223C
:1000E400E4FDFCC3ED9FEC9E5015E4FBFA0BBB0052
:0F00F400010AEB64714A70F50DBD00010C80E448
:0101030022D9
:03000000020156A4
:0C015600787FE4F6D8FD75810B0200A252
:00000001FF
