:03000000020030CB
:0C000B00C28C758AAF758C3C0AD28C3216
:10003000758901758AAF758C3CC28D75A8827580F3
:1000400000D282D28375301675311975320375333B
:1000500016753419753503D28CA831A9331200C432
:100060007A001200DBBA12FA15311533D9E9C283CE
:10007000D284A935A8311200C47A001200DBBA126A
:10008000FA15311535D9EBC282C284D280D285A847
:1000900030A9341200C47A001200DBBA12FA153407
:1000A0001530D8EBC280D281A832A9341200C47AAC
:1000B000001200DBBA12FA15341532D8EBC281C235
:1000C0008502003EE875F00A84F537E5F0F536E97B
:1000D00075F00A84F539E5F0F5382290011BD2B2AB
:1000E000E53693F59012010DC2B2D2B3E53793F520
:1000F0009012010DC2B3D2B0E53893F590310DC224
:10010000B0D2B1E53993F590310DC2B1227F057EB1
:1001100064DEFEDFFA227DFFDDFE22C0F9A4B09985
:050120009282F88090BE
:00000001FF
